{
  "_format": "hh-sol-artifact-1",
  "contractName": "AuditDisclosure",
  "sourceName": "contracts/AuditDisclosure.sol",
  "abi": [
    {
      "inputs": [],
      "stateMutability": "nonpayable",
      "type": "constructor"
    },
    {
      "inputs": [
        {
          "internalType": "bytes32",
          "name": "handle",
          "type": "bytes32"
        },
        {
          "internalType": "address",
          "name": "sender",
          "type": "address"
        }
      ],
      "name": "SenderNotAllowedToUseHandle",
      "type": "error"
    },
    {
      "inputs": [],
      "name": "ZamaProtocolUnsupported",
      "type": "error"
    },
    {
      "anonymous": false,
      "inputs": [
        {
          "indexed": true,
          "internalType": "uint256",
          "name": "reportId",
          "type": "uint256"
        },
        {
          "indexed": false,
          "internalType": "uint256",
          "name": "payment",
          "type": "uint256"
        }
      ],
      "name": "ReportApproved",
      "type": "event"
    },
    {
      "anonymous": false,
      "inputs": [
        {
          "indexed": true,
          "internalType": "uint256",
          "name": "reportId",
          "type": "uint256"
        },
        {
          "indexed": false,
          "internalType": "uint256",
          "name": "disputeCount",
          "type": "uint256"
        }
      ],
      "name": "ReportDisputed",
      "type": "event"
    },
    {
      "anonymous": false,
      "inputs": [
        {
          "indexed": true,
          "internalType": "uint256",
          "name": "reportId",
          "type": "uint256"
        },
        {
          "indexed": false,
          "internalType": "string",
          "name": "reason",
          "type": "string"
        }
      ],
      "name": "ReportRejected",
      "type": "event"
    },
    {
      "anonymous": false,
      "inputs": [
        {
          "indexed": true,
          "internalType": "uint256",
          "name": "reportId",
          "type": "uint256"
        }
      ],
      "name": "ReportRevealed",
      "type": "event"
    },
    {
      "anonymous": false,
      "inputs": [
        {
          "indexed": true,
          "internalType": "uint256",
          "name": "reportId",
          "type": "uint256"
        },
        {
          "indexed": true,
          "internalType": "address",
          "name": "researcher",
          "type": "address"
        }
      ],
      "name": "ReportSubmitted",
      "type": "event"
    },
    {
      "inputs": [],
      "name": "DEADLINE",
      "outputs": [
        {
          "internalType": "uint256",
          "name": "",
          "type": "uint256"
        }
      ],
      "stateMutability": "view",
      "type": "function"
    },
    {
      "inputs": [
        {
          "internalType": "uint256",
          "name": "reportId",
          "type": "uint256"
        }
      ],
      "name": "approve",
      "outputs": [],
      "stateMutability": "payable",
      "type": "function"
    },
    {
      "inputs": [],
      "name": "confidentialProtocolId",
      "outputs": [
        {
          "internalType": "uint256",
          "name": "",
          "type": "uint256"
        }
      ],
      "stateMutability": "view",
      "type": "function"
    },
    {
      "inputs": [
        {
          "internalType": "uint256",
          "name": "reportId",
          "type": "uint256"
        }
      ],
      "name": "dispute",
      "outputs": [],
      "stateMutability": "nonpayable",
      "type": "function"
    },
    {
      "inputs": [
        {
          "internalType": "uint256",
          "name": "reportId",
          "type": "uint256"
        }
      ],
      "name": "getRejectionReason",
      "outputs": [
        {
          "internalType": "string",
          "name": "",
          "type": "string"
        }
      ],
      "stateMutability": "view",
      "type": "function"
    },
    {
      "inputs": [
        {
          "internalType": "uint256",
          "name": "reportId",
          "type": "uint256"
        }
      ],
      "name": "getReport",
      "outputs": [
        {
          "internalType": "address",
          "name": "researcher",
          "type": "address"
        },
        {
          "internalType": "bytes32",
          "name": "descriptionHash",
          "type": "bytes32"
        },
        {
          "internalType": "enum AuditDisclosure.Status",
          "name": "status",
          "type": "uint8"
        },
        {
          "internalType": "uint256",
          "name": "submittedAt",
          "type": "uint256"
        },
        {
          "internalType": "string",
          "name": "rejectionReason",
          "type": "string"
        },
        {
          "internalType": "uint256",
          "name": "disputeCount",
          "type": "uint256"
        },
        {
          "internalType": "bool",
          "name": "revealed",
          "type": "bool"
        }
      ],
      "stateMutability": "view",
      "type": "function"
    },
    {
      "inputs": [
        {
          "internalType": "address",
          "name": "researcher",
          "type": "address"
        }
      ],
      "name": "getReportsByResearcher",
      "outputs": [
        {
          "internalType": "uint256[]",
          "name": "",
          "type": "uint256[]"
        }
      ],
      "stateMutability": "view",
      "type": "function"
    },
    {
      "inputs": [
        {
          "internalType": "uint256",
          "name": "reportId",
          "type": "uint256"
        }
      ],
      "name": "getStatus",
      "outputs": [
        {
          "internalType": "enum AuditDisclosure.Status",
          "name": "",
          "type": "uint8"
        }
      ],
      "stateMutability": "view",
      "type": "function"
    },
    {
      "inputs": [
        {
          "internalType": "uint256",
          "name": "reportId",
          "type": "uint256"
        }
      ],
      "name": "isDeadlinePassed",
      "outputs": [
        {
          "internalType": "bool",
          "name": "",
          "type": "bool"
        }
      ],
      "stateMutability": "view",
      "type": "function"
    },
    {
      "inputs": [],
      "name": "owner",
      "outputs": [
        {
          "internalType": "address",
          "name": "",
          "type": "address"
        }
      ],
      "stateMutability": "view",
      "type": "function"
    },
    {
      "inputs": [
        {
          "internalType": "uint256",
          "name": "reportId",
          "type": "uint256"
        },
        {
          "internalType": "string",
          "name": "reason",
          "type": "string"
        }
      ],
      "name": "reject",
      "outputs": [],
      "stateMutability": "nonpayable",
      "type": "function"
    },
    {
      "inputs": [],
      "name": "reportCount",
      "outputs": [
        {
          "internalType": "uint256",
          "name": "",
          "type": "uint256"
        }
      ],
      "stateMutability": "view",
      "type": "function"
    },
    {
      "inputs": [
        {
          "internalType": "uint256",
          "name": "",
          "type": "uint256"
        }
      ],
      "name": "reports",
      "outputs": [
        {
          "internalType": "address",
          "name": "researcher",
          "type": "address"
        },
        {
          "internalType": "euint8",
          "name": "encSeverity",
          "type": "bytes32"
        },
        {
          "internalType": "bytes32",
          "name": "descriptionHash",
          "type": "bytes32"
        },
        {
          "internalType": "enum AuditDisclosure.Status",
          "name": "status",
          "type": "uint8"
        },
        {
          "internalType": "uint256",
          "name": "submittedAt",
          "type": "uint256"
        },
        {
          "internalType": "string",
          "name": "rejectionReason",
          "type": "string"
        },
        {
          "internalType": "uint256",
          "name": "disputeCount",
          "type": "uint256"
        },
        {
          "internalType": "bool",
          "name": "revealed",
          "type": "bool"
        }
      ],
      "stateMutability": "view",
      "type": "function"
    },
    {
      "inputs": [
        {
          "internalType": "uint256",
          "name": "reportId",
          "type": "uint256"
        }
      ],
      "name": "reveal",
      "outputs": [],
      "stateMutability": "nonpayable",
      "type": "function"
    },
    {
      "inputs": [
        {
          "internalType": "externalEuint8",
          "name": "encryptedSeverity",
          "type": "bytes32"
        },
        {
          "internalType": "bytes",
          "name": "inputProof",
          "type": "bytes"
        },
        {
          "internalType": "bytes32",
          "name": "descriptionHash",
          "type": "bytes32"
        }
      ],
      "name": "submit",
      "outputs": [],
      "stateMutability": "nonpayable",
      "type": "function"
    }
  ],
  "bytecode": "0x608060405234801561000f575f5ffd5b506100c461001b6100da565b80517f9e7b61f58c47dc699ac88507c4f5bb9f121c03808c5676a8078fe583e464970080546001600160a01b03199081166001600160a01b039384161790915560208301517f9e7b61f58c47dc699ac88507c4f5bb9f121c03808c5676a8078fe583e46497018054831691841691909117905560408301517f9e7b61f58c47dc699ac88507c4f5bb9f121c03808c5676a8078fe583e46497028054909216921691909117905550565b5f80546001600160a01b03191633179055610289565b604080516060810182525f808252602082018190529181019190915246600103610173575060408051606080820183525f8083526020808401829052928401528251908101835273ca2e8f1f656cd25c01f05d0b243ab1ecd4a8ffb6815273d82385dada1ae3e969447f20a3164f6213100e75918101919091527377627828a55156b04ac0dc0eb30467f1a552bb039181019190915290565b4662aa36a7036101f2575060408051606080820183525f8083526020808401829052928401528251908101835273f0ffdc93b7e186bc2f8cb3daa75d86d1930a433d81527392c920834ec8941d2c77d188936e1f7a6f49c1279181019190915273be0e383937d564d7ff0bc3b46c51f0bf8d5c311a9181019190915290565b46617a6903610270575060408051606080820183525f808352602080840182905292840152825190810183527350157cffd6bbfa2dece204a89ec419c23ef5755d815273e3a9105a3a932253a70f126eb1e3b589c643dd249181019190915273901f8942346f7ab3a01f6d7613119bca447bb0309181019190915290565b6040516373cac13b60e01b815260040160405180910390fd5b611a57806102965f395ff3fe6080604052600436106100e3575f3560e01c806371d68a9711610087578063a082c86e11610057578063a082c86e1461029d578063b759f954146102b3578063c2ca0ac5146102c6578063c942adf7146102e5575f5ffd5b806371d68a971461021557806386d6282c146102345780638927b030146102535780638da5cb5b14610267575f5ffd5b80632821e707116100c25780632821e7071461015f5780634e7f9b191461018b5780635c622a0e146101bd578063658b2f07146101e9575f5ffd5b8062f7df8b146100e75780630bd8f8e11461011b578063185c6f841461013c575b5f5ffd5b3480156100f2575f5ffd5b50610106610101366004611475565b610318565b60405190151581526020015b60405180910390f35b348015610126575f5ffd5b5061013a6101353660046114d1565b610393565b005b348015610147575f5ffd5b5061015160015481565b604051908152602001610112565b34801561016a575f5ffd5b5061017e610179366004611475565b61056c565b604051610112919061154e565b348015610196575f5ffd5b506101aa6101a5366004611475565b610657565b604051610112979695949392919061158f565b3480156101c8575f5ffd5b506101dc6101d7366004611475565b610796565b60405161011291906115e4565b3480156101f4575f5ffd5b506102086102033660046115f2565b6107fa565b6040516101129190611618565b348015610220575f5ffd5b5061013a61022f36600461165a565b610863565b34801561023f575f5ffd5b5061013a61024e366004611475565b610a1b565b34801561025e575f5ffd5b50610151610b8c565b348015610272575f5ffd5b505f54610285906001600160a01b031681565b6040516001600160a01b039091168152602001610112565b3480156102a8575f5ffd5b5061015162093a8081565b61013a6102c1366004611475565b610b9a565b3480156102d1575f5ffd5b5061013a6102e0366004611475565b610d90565b3480156102f0575f5ffd5b506103046102ff366004611475565b610f19565b6040516101129897969594939291906116a2565b5f8160015481106103685760405162461bcd60e51b815260206004820152601560248201527414995c1bdc9d08191bd95cc81b9bdd08195e1a5cdd605a1b60448201526064015b60405180910390fd5b5f838152600260205260409020600401546103879062093a8090611714565b42101591505b50919050565b5f6103d38585858080601f0160208091040260200160405190810160405280939291908181526020018383808284375f92019190915250610ff592505050565b5f549091506103ec9082906001600160a01b0316611064565b506103f78130611064565b50600180545f918261040883611727565b90915550604080516101008101825233815260208082018681528284018881525f606085018181524260808701528651808601885282815260a087015260c0860182905260e08601829052878252600294859052959020845181547fffffffffffffffffffffffff0000000000000000000000000000000000000000166001600160a01b039091161781559151600180840191909155905192820192909255925160038085018054969750939591939260ff19909216919084908111156104d1576104d1611567565b02179055506080820151600482015560a082015160058201906104f490826117d1565b5060c0820151600682015560e0909101516007909101805460ff1916911515919091179055335f81815260036020908152604080832080546001810182559084529183209091018490555183917ffe73cf9b793e65d9d707a5bfe3063e5f3a58eb52b27a356478c30fc83f5200f291a3505050505050565b60608160015481106105b85760405162461bcd60e51b815260206004820152601560248201527414995c1bdc9d08191bd95cc81b9bdd08195e1a5cdd605a1b604482015260640161035f565b5f83815260026020526040902060050180546105d390611753565b80601f01602080910402602001604051908101604052809291908181526020018280546105ff90611753565b801561064a5780601f106106215761010080835404028352916020019161064a565b820191905f5260205f20905b81548152906001019060200180831161062d57829003601f168201915b5050505050915050919050565b5f5f5f5f60605f5f8760015481106106a95760405162461bcd60e51b815260206004820152601560248201527414995c1bdc9d08191bd95cc81b9bdd08195e1a5cdd605a1b604482015260640161035f565b5f898152600260208190526040909120805491810154600382015460048301546006840154600785015460058601805496976001600160a01b03169660ff958616959193929091169083906106fd90611753565b80601f016020809104026020016040519081016040528092919081815260200182805461072990611753565b80156107745780601f1061074b57610100808354040283529160200191610774565b820191905f5260205f20905b81548152906001019060200180831161075757829003601f168201915b5050505050925098509850985098509850985098505050919395979092949650565b5f8160015481106107e15760405162461bcd60e51b815260206004820152601560248201527414995c1bdc9d08191bd95cc81b9bdd08195e1a5cdd605a1b604482015260640161035f565b50505f9081526002602052604090206003015460ff1690565b6001600160a01b0381165f9081526003602090815260409182902080548351818402810184019094528084526060939283018282801561085757602002820191905f5260205f20905b815481526020019060010190808311610843575b50505050509050919050565b5f546001600160a01b031633146108a85760405162461bcd60e51b81526020600482015260096024820152682737ba1037bbb732b960b91b604482015260640161035f565b8260015481106108f25760405162461bcd60e51b815260206004820152601560248201527414995c1bdc9d08191bd95cc81b9bdd08195e1a5cdd605a1b604482015260640161035f565b835f5f82815260026020526040902060039081015460ff169081111561091a5761091a611567565b1461095c5760405162461bcd60e51b81526020600482015260126024820152715265706f7274206e6f742070656e64696e6760701b604482015260640161035f565b826109a95760405162461bcd60e51b815260206004820152601960248201527f52656a656374696f6e20726561736f6e20726571756972656400000000000000604482015260640161035f565b5f85815260026020819052604090912060038101805460ff1916909217909155600581016109d885878361188c565b50857f91c2a97a3402b89f9b1cf9e82b6ded57473f5d47123ceb8fafcbdea6e687bd678686604051610a0b929190611946565b60405180910390a2505050505050565b806001548110610a655760405162461bcd60e51b815260206004820152601560248201527414995c1bdc9d08191bd95cc81b9bdd08195e1a5cdd605a1b604482015260640161035f565b5f82815260026020526040902080546001600160a01b03163314610acb5760405162461bcd60e51b815260206004820152600f60248201527f4e6f7420796f7572207265706f72740000000000000000000000000000000000604482015260640161035f565b600260038083015460ff1690811115610ae657610ae6611567565b14610b335760405162461bcd60e51b815260206004820152601b60248201527f43616e206f6e6c7920646973707574652072656a656374696f6e730000000000604482015260640161035f565b600681018054905f610b4483611727565b9190505550827fcfe4c27d5581f3c680ce45c647d684074a70abfbc743fa13d1728f50c34590698260060154604051610b7f91815260200190565b60405180910390a2505050565b5f610b95611087565b905090565b5f546001600160a01b03163314610bdf5760405162461bcd60e51b81526020600482015260096024820152682737ba1037bbb732b960b91b604482015260640161035f565b806001548110610c295760405162461bcd60e51b815260206004820152601560248201527414995c1bdc9d08191bd95cc81b9bdd08195e1a5cdd605a1b604482015260640161035f565b815f5f82815260026020526040902060039081015460ff1690811115610c5157610c51611567565b14610c935760405162461bcd60e51b81526020600482015260126024820152715265706f7274206e6f742070656e64696e6760701b604482015260640161035f565b5f8381526002602052604080822060038101805460ff19166001179055805491519092916001600160a01b03169034908381818185875af1925050503d805f8114610cf9576040519150601f19603f3d011682016040523d82523d5f602084013e610cfe565b606091505b5050905080610d4f5760405162461bcd60e51b815260206004820152600e60248201527f5061796d656e74206661696c6564000000000000000000000000000000000000604482015260640161035f565b847fd54c93ffdb768d6ab03153bd0b4f434eadd48e1132a053d1eaeba35c6943b35034604051610d8191815260200190565b60405180910390a25050505050565b806001548110610dda5760405162461bcd60e51b815260206004820152601560248201527414995c1bdc9d08191bd95cc81b9bdd08195e1a5cdd605a1b604482015260640161035f565b815f5f82815260026020526040902060039081015460ff1690811115610e0257610e02611567565b14610e445760405162461bcd60e51b81526020600482015260126024820152715265706f7274206e6f742070656e64696e6760701b604482015260640161035f565b5f8381526002602052604090206004810154610e649062093a8090611714565b421015610eb35760405162461bcd60e51b815260206004820152601460248201527f446561646c696e65206e6f742072656163686564000000000000000000000000604482015260640161035f565b6003818101805460ff1916600183021790555060078101805460ff19166001908117909155810154610ee4906110bb565b600182015560405184907fe6a15b42063313041c59e78c7eca0ac8ff6f6137984a93e7f4f32811add85aef905f90a250505050565b600260208190525f91825260409091208054600182015492820154600383015460048401546005850180546001600160a01b039095169695939460ff909316939192610f6490611753565b80601f0160208091040260200160405190810160405280929190818152602001828054610f9090611753565b8015610fdb5780601f10610fb257610100808354040283529160200191610fdb565b820191905f5260205f20905b815481529060010190602001808311610fbe57829003601f168201915b50505050600683015460079093015491929160ff16905088565b5f81515f146110115761100a838360026110da565b905061105e565b825f81900361102b576110235f6111fa565b91505061105e565b6110358133611209565b61105b57604051630276b5d960e01b81526004810182905233602482015260440161035f565b90505b92915050565b5f82611076576110735f6111fa565b92505b61108083836112a8565b5090919050565b5f466001036110965750600190565b4662aa36a7036110a7575061271190565b46617a69036110b657505f1990565b505f90565b5f816110cd576110ca5f6111fa565b91505b6110d68261132f565b5090565b7f9e7b61f58c47dc699ac88507c4f5bb9f121c03808c5676a8078fe583e46497015460405163045fc19560e11b81525f917f9e7b61f58c47dc699ac88507c4f5bb9f121c03808c5676a8078fe583e4649700916001600160a01b03909116906308bf832a90611153908890339089908990600401611984565b6020604051808303815f875af115801561116f573d5f5f3e3d5ffd5b505050506040513d601f19601f8201168201806040525081019061119391906119c3565b8154604051630f8e573b60e21b8152600481018390523360248201529193506001600160a01b031690633e395cec906044015f604051808303815f87803b1580156111dc575f5ffd5b505af11580156111ee573d5f5f3e3d5ffd5b50505050509392505050565b5f61105e8260ff1660026113c0565b5f807f9e7b61f58c47dc699ac88507c4f5bb9f121c03808c5676a8078fe583e464970080546040516382027b6d60e01b8152600481018790526001600160a01b0386811660248301529293509116906382027b6d90604401602060405180830381865afa15801561127c573d5f5f3e3d5ffd5b505050506040513d601f19601f820116820180604052508101906112a091906119da565b949350505050565b7f9e7b61f58c47dc699ac88507c4f5bb9f121c03808c5676a8078fe583e46497008054604051635ca4b5b160e11b8152600481018590526001600160a01b0384811660248301529091169063b9496b62906044015b5f604051808303815f87803b158015611314575f5ffd5b505af1158015611326573d5f5f3e3d5ffd5b50505050505050565b6040805160018082528183019092527f9e7b61f58c47dc699ac88507c4f5bb9f121c03808c5676a8078fe583e4649700915f91906020808301908036833701905050905082815f81518110611386576113866119f9565b60209081029190910101528154604051637d6e912360e11b81526001600160a01b039091169063fadd2246906112fd908490600401611618565b7f9e7b61f58c47dc699ac88507c4f5bb9f121c03808c5676a8078fe583e464970154604051639cd07acb60e01b81525f917f9e7b61f58c47dc699ac88507c4f5bb9f121c03808c5676a8078fe583e4649700916001600160a01b0390911690639cd07acb906114359087908790600401611a0d565b6020604051808303815f875af1158015611451573d5f5f3e3d5ffd5b505050506040513d601f19601f820116820180604052508101906112a091906119c3565b5f60208284031215611485575f5ffd5b5035919050565b5f5f83601f84011261149c575f5ffd5b50813567ffffffffffffffff8111156114b3575f5ffd5b6020830191508360208285010111156114ca575f5ffd5b9250929050565b5f5f5f5f606085870312156114e4575f5ffd5b84359350602085013567ffffffffffffffff811115611501575f5ffd5b61150d8782880161148c565b9598909750949560400135949350505050565b5f81518084528060208401602086015e5f602082860101526020601f19601f83011685010191505092915050565b602081525f6115606020830184611520565b9392505050565b634e487b7160e01b5f52602160045260245ffd5b6004811061158b5761158b611567565b9052565b6001600160a01b03881681528660208201526115ae604082018761157b565b84606082015260e060808201525f6115c960e0830186611520565b60a08301949094525090151560c09091015295945050505050565b6020810161105e828461157b565b5f60208284031215611602575f5ffd5b81356001600160a01b0381168114611560575f5ffd5b602080825282518282018190525f918401906040840190835b8181101561164f578351835260209384019390920191600101611631565b509095945050505050565b5f5f5f6040848603121561166c575f5ffd5b83359250602084013567ffffffffffffffff811115611689575f5ffd5b6116958682870161148c565b9497909650939450505050565b6001600160a01b03891681528760208201528660408201526116c7606082018761157b565b84608082015261010060a08201525f6116e4610100830186611520565b60c08301949094525090151560e0909101529695505050505050565b634e487b7160e01b5f52601160045260245ffd5b8082018082111561105e5761105e611700565b5f6001820161173857611738611700565b5060010190565b634e487b7160e01b5f52604160045260245ffd5b600181811c9082168061176757607f821691505b60208210810361038d57634e487b7160e01b5f52602260045260245ffd5b601f8211156117cc57805f5260205f20601f840160051c810160208510156117aa5750805b601f840160051c820191505b818110156117c9575f81556001016117b6565b50505b505050565b815167ffffffffffffffff8111156117eb576117eb61173f565b6117ff816117f98454611753565b84611785565b6020601f821160018114611831575f831561181a5750848201515b5f19600385901b1c1916600184901b1784556117c9565b5f84815260208120601f198516915b828110156118605787850151825560209485019460019092019101611840565b508482101561187d57868401515f19600387901b60f8161c191681555b50505050600190811b01905550565b67ffffffffffffffff8311156118a4576118a461173f565b6118b8836118b28354611753565b83611785565b5f601f8411600181146118e9575f85156118d25750838201355b5f19600387901b1c1916600186901b1783556117c9565b5f83815260208120601f198716915b8281101561191857868501358255602094850194600190920191016118f8565b5086821015611934575f1960f88860031b161c19848701351681555b505060018560011b0183555050505050565b60208152816020820152818360408301375f818301604090810191909152601f909201601f19160101919050565b6054811061158b5761158b611567565b8481526001600160a01b0384166020820152608060408201525f6119ab6080830185611520565b90506119ba6060830184611974565b95945050505050565b5f602082840312156119d3575f5ffd5b5051919050565b5f602082840312156119ea575f5ffd5b81518015158114611560575f5ffd5b634e487b7160e01b5f52603260045260245ffd5b82815260408101611560602083018461197456fea2646970667358221220eb5e3f819fac4e880296b449b53494ae1638e2e2beba18b8be8c286949037eb264736f6c634300081b0033",
  "linkReferences": {},
  "deployedLinkReferences": {}
}